:060000000A128A110C280F
:10000800FE00030EF1000A08F2000A128A15732E88
:100018000A128A110F280A128A11FC270A128A1159
:10002800C3000A128A11FB270A128A11FA00B701C3
:10003800B801B901BA01BB01BC01BD01BE01BF01D4
:10004800C001C101C201F801F90183010A128A1134
:10005800692B83120313B10031302D06031D352897
:1000680036283A28B701B801B101BB010130AE000A
:100078002E08BA0706303A06031D432844284F289D
:10008800BA013908031949284B2801304C28003097
:10009800AE002E08B9008030AE002E08F7005030B0
:1000A8000A128A15A2250A128A11C0308312031374
:1000B800AE002E08F700DA300A128A15A2250A12B5
:1000C8008A11D03083120313AE002E08F7001230C5
:1000D8000A128A15A2250A128A112A3083120313DA
:1000E8003106031978287928A62823303106031900
:1000F8007E287F28A628310A031983288428A62861
:100108000130AE002E08BB0705303B0203188D28CE
:100118008E286D293808F4003708F3000A30F500F6
:100128000030F6000A128A1577250A128A118312FE
:10013800031331087307B700003003180130740740
:10014800B8006D292A303106031DAB28AC28B02829
:10015800B701B801BB016D2923303106031DB5284D
:10016800B6286D2900303802B53003193702031C50
:10017800BE28BF28C328B430B7000030B8000A1220
:100188008A1516250A128A113C3083120313AE0011
:100198002E08C00012158330AE002E08F7008430F8
:1001A8000A128A15A2250A128A11903083120313A3
:1001B800AE002E08F7009B300A128A15A2250A12F3
:1001C8008A119C3083120313AE002E08AB007330E3
:1001D8000A128A1528250A128A115A299930AE005E
:1001E8002E08AB006430F3000030F4004008AF0084
:1001F800B0012F08F5003008F6000A128A15B0265B
:100208000A128A117308303E0A128A1528250A1222
:100218008A119A3083120313AE002E08AB000A30FD
:10022800A4000030A5000A30F3000030F4004008B4
:10023800AF00B0012F08F5003008F6000A128A1541
:10024800B0260A128A11740883120313A7007308D0
:10025800A6000A128A11A0270A128A118312031310
:100268002408303E0A128A1528250A128A119B3062
:1002780083120313AE002E08AB000A30A40000302E
:10028800A5004008AF00B0012F08A6003008A7005D
:100298000A128A11A0270A128A118312031324084A
:1002A800303E0A128A1528250A128A11831203136E
:1002B8004008031D60296129F22812110A128A15C3
:1002C80016250A128A11303083120313AE002E0845
:1002D800C30039080319712972299529C730AE005E
:1002E8002E08AB0020300A128A1528250A128A1116
:1002F800C83083120313AE002E08AB0020300A1258
:100308008A1528250A128A11C93083120313AE00F0
:100318002E08AB0020300A128A1528250A128A11E5
:10032800F429C730AE002E08AB006430F30000306B
:10033800F4003808F6003708F5000A128A119F25DC
:100348000A128A117308303E0A128A1528250A12E1
:100358008A11C83083120313AE002E08AB000A308E
:10036800A3000030A4000A30F3000030F40038087D
:10037800F6003708F5000A128A119F250A128A1119
:10038800740883120313A6007308A5000A128A15BD
:1003980037260A128A11831203132308303E0A12E1
:1003A8008A1528250A128A11C93083120313AE0050
:1003B8002E08AB000A30A3000030A4003808A600BD
:1003C8003708A5000A128A1537260A128A118312DD
:1003D80003132308303E0A128A1528250A128A11A7
:1003E800080083120313B10031302D06031DFD29C7
:1003F800FE29032AC201C101B101BE01BF0180303B
:10040800AE002E08F70001300A128A15A2250A123A
:100418008A11C03083120313AE002E08F700D430BF
:100428000A128A15A2250A128A11C73083120313E9
:10043800AE002E08AB003A300A128A1528250A1297
:100448008A11D03083120313AE002E08F700123041
:100458000A128A15A2250A128A112A308312031356
:1004680031060319382A392A792A23303106031923
:100478003E2A3F2A792A310A0319432A442A792A2B
:100488000130AE002E08BE0704303E0203184D2A84
:100498004E2A602A0A30AE002E08F30042080A12DB
:1004A8008A11E5250A128A11831203133107AF0056
:1004B8002F08C200BF01A52A06303E020318652A8C
:1004C800662AA52A0A30AE002E08F30041080A124F
:1004D8008A11E5250A128A11831203133107AF0026
:1004E8002F08C100BF01BF0AA52A2A303106031D03
:1004F8007E2A7F2A922A3F08031D832A842A872A74
:10050800C201BE01A52A3F03031D8B2A8C2AA52AF6
:10051800C1010230AE002E08BE00A52A23303106E4
:10052800031D972A982AA52A0A128A1516250A123F
:100538008A1183120313071512157030AE002E08A6
:10054800C3000130AE002E08BD070B303D06031D69
:10055800AE2AAF2ABA2ABD013C080319B42AB62A22
:100568000130B72A0030AE002E08BC003C08031941
:10057800BE2ABF2AF22A3F08031DC32AC42ADB2A3F
:10058800C830AE002E08AB0020300A128A15282584
:100598000A128A11C93083120313AE002E08AB0069
:1005A80020300A128A1528250A128A11682BC530AC
:1005B800AE002E08AB0020300A128A1528250A1230
:1005C8008A11C63083120313AE002E08AB00203008
:1005D8000A128A1528250A128A11682BC830AE001B
:1005E8002E08AB000A30F3000030F4004208AF00D8
:1005F800B0012F08F5003008F6000A128A15B02657
:100608000A128A117308303E0A128A1528250A121E
:100618008A11C93083120313AE002E08AB000A30CA
:10062800A4000030A5004208AF00B0012F08A600C2
:100638003008A7000A128A11A0270A128A11831209
:1006480003132408303E0A128A1528250A128A1133
:10065800C53083120313AE002E08AB000A30F30036
:100668000030F4004108AF00B0012F08F500300851
:10067800F6000A128A15B0260A128A117308303E4B
:100688000A128A1528250A128A11C6308312031302
:10069800AE002E08AB000A30A4000030A5004108C7
:1006A800AF00B0012F08A6003008A7000A128A116F
:1006B800A0270A128A11831203132408303E0A1253
:1006C8008A1528250A128A1108000A128A153D255A
:1006D8000A128A1101300A128A1552250A128A1141
:1006E80083120313B2003208B60020304306031DFC
:1006F8007E2B7F2BE22B3603031D832B842BB32BFE
:100708003030B2003208C3000A128A1516250A12C0
:100718008A11C23083120313B2003208F7006B301B
:100728000A128A15A2250A128A114D308312031360
:10073800B4001930B3004F30B200B20BA12BB30B89
:10074800A12BB40BA12B0A128A1516250A128A119D
:10075800313083120313B2003208B500752C023011
:100768003606031DB82BB92BC72B4030B200320810
:10077800C3003130B2003208B5000A128A151625B6
:100788000A128A11752C03303606031DCC2BCD2B8B
:10079800D62B5030B2003208C3003130B2003208D4
:1007A800B500C12B04303606031DDB2BDC2BE12BF7
:1007B8006030B2003208C300C12B752C703043067C
:1007C800031DE72BE82B182C04303606031DED2BF0
:1007D800EE2B022C42081E3EB2003208C2003C300A
:1007E8004202031CF82BF92B022C0130B20032080C
:1007F800C1074208C43EB2003208C20005303606BE
:10080800031D072C082C0D2C8030B2003208C300C1
:10081800752C06303606031D122C132C752C9030BF
:10082800B2003208C300752C80304306031D1D2C0E
:100838001E2CE12B04303606031D232C242C752C8A
:10084800121507157030B2003208C300752C0A1251
:100858008A158A270A128A110A128A1516250A1277
:100868008A11203083120313B2003208C3009C2C73
:100878000A128A15D0250A128A119C2C3508B20052
:100888003208AD0036080A128A11F5210A128A11B7
:100898009C2C0A128A11A6240A128A119C2C35084B
:1008A800B2003208AD0036080A128A11F5210A1280
:1008B8008A119C2C3508B2003208AD0036080A129D
:1008C8008A112D200A128A119C2C0A128A15F824E2
:1008D8000A128A119C2C121107119C2C1211071153
:1008E800302C831203134308B200B3013308003AD3
:1008F80003197F2C9C2C3208103A03192B2C303A00
:1009080003193C2C103A0319422C703A0319532C42
:10091800103A03195E2C303A0319692C103A03195E
:100928004D2CF03A03196F2C103A0319722C9C2C99
:10093800FF3083120313B2003208B5006E2B0A127F
:100948008A110C28813083120313AD002D08F7009B
:10095800A5300A128A15A2250A128A118930831233
:100968000313AD002D08AB000A30F3000030F4008B
:100978004108AE00AF012E08F5002F08F6000A1254
:100988008A15B0260A128A117308303E0A128A158F
:1009980028250A128A118A3083120313AD002D0804
:1009A800AB000A30A4000030A5004108AE00AF013A
:1009B8002E08A6002F08A7000A128A11A0270A12DB
:1009C8008A11831203132408303E0A128A15282537
:1009D8000A128A118B3083120313AD002D08AB0065
:1009E8003A300A128A1528250A128A118C30831285
:1009F8000313AD002D08AB000A30F3000030F400FB
:100A08004208AE00AF012E08F5002F08F6000A12C2
:100A18008A15B0260A128A117308303E0A128A15FE
:100A280028250A128A118D3083120313AD002D0870
:100A3800AB000A30A4000030A5004208AE00AF01A8
:100A48002E08A6002F08A7000A128A11A0270A124A
:100A58008A11831203132408303E0A128A152825A6
:100A68000A128A11C23083120313AD002D08F70051
:100A780032300A128A15A2250A128A11923083127C
:100A88000313AD002D08F700AD300A128A15A22510
:100A98000A128A11D23083120313AD002D08F70011
:100AA800CD300A128A15A2250A128A11831203135D
:100AB8004108031D602D612D9E2D4208031D652DE3
:100AC800662D9E2D0A128A1516250A128A1183127E
:100AD800031312110711C430AD002D08F700903030
:100AE8000A128A15A2250A128A119030831203135A
:100AF800AD002D08F70022300A128A15A2250A1225
:100B08008A11333083120313AF00BB30AE00DF30DD
:100B1800AD00AD0B8D2DAE0B8D2DAF0B8D2D0A12AB
:100B28008A1516250A128A11203083120313AD0084
:100B38002D08C300080083120313A101A201730842
:100B480074040319A82DA92DE02DA001A00AB72D22
:100B580001300310F30DF40DFF3E031DAD2D0130E0
:100B6800F7007708A007F41FBA2DBB2DAC2D013074
:100B78000310A10DA20DFF3E031DBC2D74087602C3
:100B8800031DC82D73087502031CCB2DCC2DD32D46
:100B98007308F5027408031CF603F60221140130E9
:100BA8000310F40CF30CFF3E031DD42D0130A002FA
:100BB800031DDF2DE02DBB2D2208F4002108F300D2
:100BC8000800F600F501761CEA2DEB2DEF2D7308D1
:100BD800F4007408F5070310F30D0310F60C7608FB
:0C0BE800031DF72DF82DE72D75080800FF
:100C000006308A000408840A8207003453344534CD
:100C100054342034543449344D3445342034283449
:100C20004D344D343A3453345334293400342A3457
:100C30003A3443344C344534413452342034233430
:100C40003A3445344E345434453452340034453407
:100C50006E346A346F347934203479346F347534B7
:100C6000723420346D34653461346C34003434347F
:100C70002E34533454344134523454342F34523497
:100C80004534533455344D34453400344D3469348F
:100C9000633472346F34773461347634653420349D
:100CA0006F34763465346E34003453344534543400
:100CB0002034543445344D34503420343C342A34B8
:100CC00043343E3400343334203443346F346E3490
:100CD000763465346334743469346F346E3400347C
:100CE00050346F3477346534723420343D342034DA
:100CF0003934303430345734003450346F3477342E
:100D00006534723469346E34673420344F344E3471
:100D100000345034723465342D34483465346134D1
:100D2000743469346E3467340034543449344D3487
:100D300045342034553450342134213421340034A6
:100D4000543469346D3465342034523465346D3430
:100D50003A340034543449344D34453420343D342D
:100D60002034003435342E34503441345534533427
:100D700045340034323420344734723469346C34AE
:100D80006C340034313420344D346934633472347B
:100D90006F34003434342034533474346134723456
:100DA0007434003436342E34533454344F34503485
:100DB0000034543449344D3445343A3400345434D6
:100DC00045344D3450343D340034831203138811BC
:100DD0000815881408146430F3000030F400FF3064
:100DE000F3070318F40AFF30F407730A031DFC2EFF
:100DF000740A031DFC2EFD2EEF2E8312031306181A
:100E0000022F032F052F01309F2F8618082F092F3F
:100E10000B2F02309F2F06190E2F0F2F112F03308B
:100E20009F2F88150811881408146430F3000030CF
:100E3000F400FF30F3070318F40AFF30F4077408D6
:100E4000803AFF0080307F02031D282F013073029B
:100E500003182B2F2C2F192F831203130618312F51
:100E6000322F342F04309F2F8618372F382F3A2FE8
:100E700005309F2F06193D2F3E2F402F06309F2F04
:100E800088150815881008146430F3000030F40049
:100E9000FF30F3070318F40AFF30F4077408803AB0
:100EA000FF0080307F02031D572F013073020318AB
:100EB0005A2F5B2F482F831203130618602F612FC0
:100EC000632F07309F2F8618662F672F692F0830F2
:100ED0009F2F06196C2F6D2F6F2F09309F2F8815AC
:100EE0000815881408106430F3000030F400FF3057
:100EF000F3070318F40AFF30F4077408803AFF0080
:100F000080307F02031D862F013073020318892F62
:100F10008A2F772F8312031306188F2F902F922F6B
:100F20002A309F2F8618952F962F982F00309F2FAD
:100F300006199B2F9C2F9E2F23309F2FFF300800D8
:100F400083120313AA01A71FA62FA72FAE2FA6094E
:100F5000A709A60A0319A70AAA01AA0AA51FB12F61
:100F6000B22FB72FA409A509A40A0319A50A2408BA
:100F700025040319BC2FBD2FEC2FA901A90ACB2FE3
:100F800001300310A40DA50DFF3E031DC12F01303C
:100F9000A8002808A907A51FCE2FCF2FC02F2508EE
:100FA0002702031DD52F24082602031CD82FD92F72
:100FB000DF2F2408A6022508031CA703A70201307F
:100FC0000310A50CA40CFF3E031DE02F0130A90265
:100FD000031DEB2FEC2FCF2F2A080319F02FF12F31
:100FE000F62FA609A709A60A0319A70A2708A5002C
:0A0FF0002608A400080001341034A4
:1019C800FA308316031392008C1483120313121136
:1019D8000800831603138801091189100A128A1551
:1019E80019270A128A1508001E30F300730883129B
:1019F8000313C200C101121507157030F3007308F4
:101A0800C300080083160313060807388600080871
:101A1800F039880081138312031388150815881478
:101A280008140800F30101300A128A1501260A1267
:101A38008A15043083120313A1003D30A000A00BC7
:101A4800232DA10B232D080083120313AC00F301EF
:101A58002B080A128A1501260A128A15F301F30ABD
:101A6800831203132C080A128A1501260A128A15F2
:101A780008000A128A15ED240A128A150A128A1514
:101A880006250A128A150A128A15E4240A128A15EA
:101A98008316031307110B178B170800F6000A1299
:101AA8008A11E5260A128A15F5007508F7007608E6
:101AB800031D5F2D602D622D7708762D770A031997
:101AC800662D672D6E2D7A0803196B2D6C2D6E2DE2
:101AD800FA01602D770A031D722D732D752DFA01F9
:101AE800FA0AFF30080083120313A001A101731C36
:101AF8007E2D7F2D872D750883120313A0070318E9
:101B0800A10A7608A10701300310F50DF60DFF3E76
:101B1800031D882D01300310F40CF30CFF3E031D48
:101B28008F2D73087404031D9A2D9B2D7B2D831212
:101B380003132108F4002008F3000800831203139C
:101B4800A100F30177080A128A1501260A128A15DC
:101B5800C12DF301F30A210884000A128A11002614
:101B68000A128A150A128A1501260A128A150130E4
:101B780083120313A0002008A1078312031321086E
:101B880084000A128A1100260A128A15003A031DD7
:101B9800CE2DCF2DAD2D0800833083120313A20064
:101BA8002208F700BD300A128A15A2250A128A15E2
:101BB800C33083120313A2002208F700B5300A12BB
:101BC8008A15A2250A128A15933083120313A200DC
:101BD8002208F7005E300A128A15A2250A128A1511
:101BE800D33083120313A2002208F700C5300A126B
:101BF8008A15A2250A128A150800F6007318052E00
:101C0800092E8312031309150C2E831203130911CD
:101C18007608F03988008914A630F400F40B122EE7
:101C2800000083120313891076080F39F40003307B
:101C38000310F40DFF3E031D1C2E0310740D8800C5
:101C48008914A630F400F40B272E00008312031326
:101C580089101B30F5009E30F400F40B312EF50B83
:101C6800312E0000080083120313230824040319EB
:101C78003E2E3F2E6E2EA801A80A4D2E01300310CD
:101C8800A30DA40DFF3E031D432E0130A700270816
:101C9800A807A41F502E512E422E24082602031DE9
:101CA800572E23082502031C5A2E5B2E612E23086B
:101CB800A5022408031CA603A60201300310A40CE5
:101CC800A30CFF3E031D622E0130A802031D6D2EDA
:101CD8006E2E512E2608A4002508A30008008312A2
:101CE80003138C1C782E792EA92E0130F8070318BF
:101CF800F90A0030F907203078064E3003197906C2
:101D0800031D872E882EA82EF801F9014208031911
:101D18008E2E8F2E912E0130C2024208031D952E61
:101D2800962EA12E410803199A2E9B2EA12E013022
:101D3800C1023C30F0007008C20040080319A52E0B
:101D4800A62EA82E0130C0028C1072088A00710ECF
:101D58008300FE0E7E0E090083120313A101F41FF7
:101D6800B62EB72EBE2EF309F409F30A0319F40AA6
:101D7800A101A10AF61FC12EC22ECB2EF509F60924
:101D8800F50A0319F60A0130F7007708A106A2013F
:101D9800A301730874040319D22ED32E0A2FA001AD
:101DA800A00AE12E01300310F30DF40DFF3E031DD0
:101DB800D72E0130F7007708A007F41FE42EE52E90
:101DC800D62E01300310A20DA30DFF3E031DE62EF3
:101DD80074087602031DF22E73087502031CF52E93
:101DE800F62EFD2E7308F5027408031CF603F6029E
:101DF800221401300310F40CF30CFF3E031DFE2ED9
:101E08000130A002031D092F0A2FE52E210803190E
:101E18000E2F0F2F142FA209A309A20A0319A30A30
:101E28002308F4002208F3000800C33083120313C8
:101E3800A100CC30A000A00B1F2FA10B1F2F00006A
:101E4800F30133300A128A1501260A128A151B304B
:101E580083120313A1009D30A000A00B312FA10B0A
:101E6800312F362FF30133300A128A1501260A1250
:101E78008A15A53083120313A000A00B412F442F0D
:101E8800F30133300A128A1501260A128A154C2FDB
:101E98004D2F0000F30102300A128A1501260A129A
:101EA8008A15A53083120313A000A00B592F5C2FAD
:101EB800F30128300A128A1501260A128A15A5305C
:101EC80083120313A000A00B672F6A2FF3010130C0
:101ED8000A128A1501260A128A150430831203137E
:101EE800A1003D30A000A00B772FA10B772FF301A5
:101EF8000C300A128A1501260A128A15A530831297
:101F08000313A000A00B862F892F08008312031348
:101F1800B0013008803EAD002D08AB00FF300A123A
:101F28008A1528250A128A15033083120313AF0075
:101F38008A30AE005530AD00AD0BA02FAE0BA02FF0
:101F4800AF0BA02F013083120313AD002D08B0078B
:101F580010303002031CB12FB22F8D2FC330AD00CB
:101F68002D08F70078300A128A15A2250A128A1558
:101F7800923083120313AD002D08F70041300A1286
:101F88008A15A2250A128A1583120313B101310892
:101F9800D03EAD002D08AB00FF300A128A15282567
:101FA8000A128A15033083120313AF008A30AE0079
:101FB8005530AD00AD0BDE2FAE0BDE2FAF0BDE2F95
:101FC800013083120313AD002D08B1071030310220
:101FD800031CEF2FF02FCB2F1A3083120313AF00FF
:101FE8005E30AE006D30AD00AD0BF82FAE0BF82FA4
:081FF800AF0BF82FFF2F0800CA
:02400E00FB3F76
:00000001FF
